:100000000C9419010C9441010C9441010C94410190
:100010000C9441010C9441010C9441010C94410158
:100020000C9441010C9441010C94A0100C940F11FC
:100030000C9441010C9441010C9441010C94410138
:100040000C9441010C947F140C9441010C944101D7
:100050000C9441010C9441010C9441010C94411306
:100060000C9441010C9441010C9441010C94410108
:100070000C9441010C9441010C9441010C944101F8
:100080000C948B130C9441010C9441010C9441018C
:100090000C9441010C9441010C9441010C944101D8
:1000A0000C9441010C9441010C9441012C00360048
:1000B00018000C001B003000300018000C001B0062
:1000C0003400300018000C001B003800300018000D
:1000D0000C001B003C00300018000C001B0040000E
:1000E000300018000C001B004400300018000C0009
:1000F0001B004800300018000C001B004C003000B2
:1001000018000C001B005000300018000C001B00F1
:1001100003081F051F1F151B1F11111F110E1F158F
:10012000111F05011F111D1F041F001F0010101FAC
:100130001F041B1F10101F061F1F011F1F111F1F51
:1001400005071F311F1F051B17151D011F011F105C
:100150001F0F100F1F0C1F1B041B071C0719151363
:100160001F111F121F101D151711151F07041F1730
:10017000151D1F151D01011F1F151F17151F001726
:1001800000001000D5F08D14A1C881CFD9F1AF20A7
:1001900000DB20C0A0D92181FFA800A800A83FDC77
:1001A000E2E8F0F4FA0004080C1014181C201C19E2
:1001B00016151516191C201D1B1A1A1B1C201E1D96
:1001C0001E201F20080B000202020000090400008C
:1001D00001020200000524001001052401010104B0
:1001E00024020605240600010705810310004009CA
:1001F000040100020A000000070502024000000797
:100200000583024000000403090412010002EF020A
:1002100001404123368000010102030141726475EF
:10022000696E6F204C4C430041726475626F7900B7
:10023000C91411241FBECFEFDAE0DEBFCDBF11E03D
:10024000A0E0B1E0E0EAFCE402C005900D92A03726
:10025000B107D9F729E0A0E7B1E001C01D92AE33A4
:10026000B207E1F711E0C9E1D1E004C02197FE0136
:100270000E944826C831D107C9F70E94FF140C9488
:100280004E260C940000682F4091600684E0489F41
:10029000F0011124E855F94F70812181A091A40645
:1002A000E8EAF6E0842F30E090E0491751F0508101
:1002B000552339F0751317C031111CC05181251712
:1002C000D8F09F5F3496943081F7662359F099E314
:1002D000899FF0011124E654F94F90899F5F908B1C
:1002E0008093620608955A13ECCF51813111E7CF04
:1002F000252F892F31E0E5CF252F892FE2CFCF930E
:10030000DF93EC0180E00E9443018F3FD9F094E03D
:10031000899FF0011124E855F94F808128818213CB
:1003200007C081E029819181921748F080E007C0E1
:100330009091A4068917D1F381E02913F7CFDF91BB
:10034000CF91089581E0FBCF24EE32E0EAE5F6E0BC
:10035000A0E0B0E0BD0180E00E9401020E94F00137
:10036000BD011296A20FB31F8217930799F38F5FF7
:100370009F4F21F4AF5FBF40DB0178F00E94ED0595
:1003800040E05091FE056091FF0580E20E94F5017A
:10039000599A0E94B905A0E0B0E07CEF0E94ED05FB
:1003A0004A2F5091FE055B0F6091FF05611D82E0B1
:1003B0000E94F501832F71FD822F70FD81910E94B3
:1003C0000D02759518F42150304019F01196AA23AA
:1003D00089F7599A0E94B90521153105F9F6089552
:1003E0000E943A02982F0C94400259980E940D02E4
:1003F000862F0E940D02852F0E940D02842F0C94DF
:100400000D02462F5091FE05570F6091FF05681FA2
:1004100083E00E94F5011EBC08958EBD00008EB5DC
:100420000DB407FEFCCF08950C94A401EAE5F6E0B4
:10043000A4EEB2E060E070E080E00E9401029D0165
:10044000AF0160E00E9435028217930751F4D90191
:10045000FA0160E00E943A0281931197D9F761E0B6
:10046000F1CF0E944002862F08950E943A02982FF1
:100470000C943A020DB407FEFDCF8EB51EBC089554
:100480000DB407FEFDCF8EB5599A0895FC018091F9
:10049000FD05882311F13FB7F89482E08093E900CD
:1004A0002091F200822F90E01816190614F481E0D2
:1004B00090E0882339F0289844E64093FC05409169
:1004C000F1004083222339F02091F200211103C072
:1004D0002BE62093E8003FBF08958FEF9FEF08952C
:1004E0002FB7F89483E08093E9009091E800892F7A
:1004F000807295FF04C09091F20080E4891B2FBFA9
:1005000008958091F40581110DC082E08093F0057B
:1005100084E08093F1051092F3051092F20581E0DA
:100520008093F40580EF95E00895CF93DF931F92B9
:10053000CDB7DEB76983DC01ED91FC910280F381D8
:10054000E02D41E050E0BE016F5F7F4F09950F90B5
:10055000DF91CF91089583E08093E9008091F200CC
:10056000882319F08AE38093E80008950E947002BE
:1005700090E00895CF93DF931F92CDB7DEB7FC01D3
:100580008485958597FD08C02FEF3FEF3587248739
:100590000F90DF91CF910895CE0101960E944602FF
:1005A000019719F4898190E0F3CF8FEF9FEFF0CF9F
:1005B0000F931F93CF93DF931F92CDB7DEB78C01BC
:1005C000FC018485958597FF0BC0CE0101960E94A2
:1005D0004602019771F4898190E0F801958784873C
:1005E000F801848595850F90DF91CF911F910F9130
:1005F00008958FEF9FEFF1CFFC018485958597FDDE
:100600000BC09FB7F89482E08093E9008091F200DC
:100610009FBF90E0019608959FB7F89482E0809381
:10062000E9008091F2009FBF90E008954091EA05B3
:100630005091EB052091E8053091E90542175307E9
:10064000B4F49091E8009570E1F39091E80092FD88
:1006500019C08093F1008091EA059091EB05019615
:100660008F739927892B19F48EEF8093E80080917E
:10067000EA059091EB0501969093EB058093EA05CE
:1006800081E0089580E00895DF92EF92FF920F934A
:100690001F93CF93DF93D82E8A01EB017B01E40EE9
:1006A000F51ECE15DF0559F0D7FE12C0FE0184916C
:1006B0000E94160321968111F4CF0FEF1FEFC8019E
:1006C000DF91CF911F910F91FF90EF90DF900895F0
:1006D0008881EECF0F931F93CF93DF931F92CDB7F7
:1006E000DEB782E0898342E450E064EC71E080E8A8
:1006F0000E9444030E948102DC0112960D911C911C
:100700000115110589F0D801ED91FC910280F3816A
:10071000E02DBE016F5F7F4FC801099597FD04C0B2
:10072000F80100851185ECCF89810F90DF91CF9181
:100730001F910F910895615030F02091F100FC015C
:1007400020830196F8CF289884E68093FC050895CD
:10075000AF92BF92CF92DF92EF92FF920F931F93CF
:10076000CF93DF936C017B018B01040F151FEB010D
:100770005E01AE18BF08C017D10759F06991D601C4
:10078000ED91FC910190F081E02DC6010995892B36
:1007900079F7C501DF91CF911F910F91FF90EF90F5
:1007A000DF90CF90BF90AF9008954F925F926F927D
:1007B0007F928F929F92AF92BF92CF92DF92EF92F1
:1007C000FF920F931F93CF93DF934C015901FC2DA0
:1007D000C02FD0E0CE01880D991D181619060CF017
:1007E00067C09B012E0D311D121613060CF060C060
:1007F000603471050CF05CC04115510509F458C016
:10080000262F2770F22EDB0177FD179633E0B59582
:10081000A7953A95E1F73A2F77FF04C0FF2011F032
:100820003FEF3A0F662777276819790997FC02C0CE
:1008300070E060E0803891050CF44BC090E89819A6
:10084000961BA32F032E000CBB0B1A2F10953F3FB6
:100850000CF010E021E08E2D877009F420E0E69482
:10086000E694E694E20EAE0DB11D19971CF028E057
:10087000E22EE31AE11A310F20E83203D0011124ED
:10088000A80DB91DA60FB71F019F600D711D112482
:10089000460F571F0F2D0F2C000C110BF33009F4CE
:1008A0001CC1C8F4F13009F4D0C0F23009F47CC0A6
:1008B000DF91CF911F910F91FF90EF90DF90CF903C
:1008C000BF90AF909F908F907F906F905F904F9070
:1008D0000895902FB5CFFA3FB1F1232F2E0DFB3F96
:1008E00039F7321729F3BD016A547E4FD12CC12C40
:1008F000C91608F0A4C0FA01EC0DFD1DE491F0E06A
:100900004F01002E02C0880C991C0A94E2F737FDB3
:1009100006C0FB018081E82CE0948E218083FF20BB
:1009200061F0373054F45B01F0E8AF0EB11CE92CF4
:10093000E094F50180818E218083FFEFCF1ADF0ADA
:100940006F5F7F4FD5CF232F2E0D321709F4B0CF15
:10095000BD016A547E4FD12CC12CC91608F069C064
:10096000FA01EC0DFD1DE491F0E04F01002E02C0F4
:10097000880C991C0A94E2F737FD04C0FB018081C2
:1009800088298083FF2051F0373044F45B01F0E880
:10099000AF0EB11CF501808189298083FFEFCF1A4A
:1009A000DF0A6F5F7F4FD9CF6FEF70E00F2C02C06F
:1009B000660F771F0A94E2F760957095772E232FC4
:1009C0002E0D321709F474CFFD01EA54FE4F6F016A
:1009D000B12CA12CA91638F5FA01EA0DFB1DE49102
:1009E000F0E02F01002E02C0440C551C0A94E2F7DF
:1009F00037FD05C0F6018081862384298083FF208E
:100A000059F037304CF44601F0E88F0E911CF40198
:100A10008081872185298083FFEFAF1ABF0A8FEF7E
:100A2000C81AD80AD7CF3F5F4C0F5D1FA058BF4FE1
:100A3000C8CF3F5F4C0F5D1FA058BF4F86CF3F5FB1
:100A40004C0F5D1FA058BF4F4CCF6A0D7B1D232F4D
:100A50002E0D321709F42CCFFD01EA54FE4F6F0121
:100A6000B12CA12CA91688F5FB01EA0DFB1D849081
:100A7000912C002E02C0880C991C0A94E2F78094F5
:100A80009094FA01EA0DFB1D6490712C002E02C0B7
:100A9000660C771C0A94E2F737FD05C0F6018081E9
:100AA000882186298083FF2049F037303CF4F60105
:100AB000E058FF4F8081892187298083FFEFAF1A9B
:100AC000BF0A8FEFC81AD80ACDCF3F5F4C0F5D1F0A
:100AD0006C0F7D1FA058BF4FBCCFC92ED12CFA017F
:100AE000E60FF71FAA54BE4F00E810E00C191D09CD
:100AF000CC19DD09BE01660F771F41E050E06A01A5
:100B00000F2C01C0CC0C0A94EAF7592F2E2D792E08
:100B1000CF93DF93ED01EF96EF9622968590A59007
:100B2000FF2059F08C9C4001AC9C500137302CF4D4
:100B3000E880B094EB20E928E99233233AF0EC9076
:100B4000A094EA20E828ED920C94A70511965A95F6
:100B500029F72A9551F0572D33951124E60FF11DF1
:100B6000A00FB11DC00FD11DD9CFDF91CF9111249E
:100B70009FCE599885E00E940D0280E00E940D02F0
:100B800080FDFBCF599A0895462F5091B301570F1E
:100B90006091B401681F83E00E94F5011EBC0895B6
:100BA0000F931F93CF93DF93EA0189010E94C4053D
:100BB000FE010150104021F00E943A028193F9CFCA
:100BC0000E9440028083DF91CF911F910F91089581
:100BD00059980E940D02599A089586E00C94E805F0
:100BE000FC010E948B06319728F068517C4F8F4F93
:100BF0009F4FF9CFAB01FC010E948B06641775076C
:100C00008E079F07C8F3089585E090E00C94F005E7
:100C10008F929F92AF92BF92CF92DF92EF92FF920C
:100C20000F931F93CF93DF936C017B018A01809117
:100C30000B01882309F45AC08091FD05882309F42B
:100C400055C08091EF0580FF05C08091E000826073
:100C50008093E000E801B12C8AEFA82E93E0892E62
:100C60002AE3922E209711F4BB20C9F10E94700252
:100C7000811108C0AA94AA20C9F181E090E00E94E5
:100C8000F005F0CF8C171D0611F00CF08C2F9FB7DC
:100C9000F8948092E9002091E80025FD02C09FBFF2
:100CA000E1CF282F30E0C21BD30BF701815020F099
:100CB00041914093F100FACFE20EF31EBB2021F0E8
:100CC0009092E800B12CEBCF8091E80085FDE7CF52
:100CD0009092E800BB24B394209709F3F3CF5D987A
:100CE00084E68093EE05101611063CF081E090E05A
:100CF000F6019383828310E000E0C801DF91CF9179
:100D00001F910F91FF90EF90DF90CF90BF90AF9029
:100D10009F908F900895AFEAB1E02FB7F8947D913E
:100D20008D919C9166B52FBFA89B05C06F3F18F4AD
:100D30007F5F8F4F9F4F22E0660F771F881F991F9D
:100D40002A95D1F70895CF92EF920F93CF93DF9327
:100D5000EC01962F6E819A3069F48D818C838985A0
:100D6000680F6E8381E090E0DF91CF910F91EF905B
:100D7000CF9008959A3378F4903308F049C09132B7
:100D800009F448C09E3209F441C098859D5F8C816A
:100D9000890F8C83E7CF91549A31B8F76F5F062E95
:100DA000000C770BAC810A2E000CBB0BE0E1F1E0EC
:100DB00021E131E08F81813079F50491F901E490EE
:100DC00042E151E09923D1F041E050E08E2D87704F
:100DD00011F450E040E02E2D269526952695240FFF
:100DE000352F311D029FF001039FF00D11249E9FAE
:100DF000A0019F9F500D11244E5E5E4F9AEFC92EA9
:100E000030E020E0CD010E94D503BFCF95E2C6CFF0
:100E10009651C4CF94E2C2CF0491F901E49042E12B
:100E200051E09923D1F041E050E08E2D877011F40C
:100E300050E040E02E2D269526952695240F352F3F
:100E4000311D029FF001039FF00D11249E9FA00110
:100E50009F9F500D11244E5E5E4F8BEFC82ED0CF5A
:100E6000089590E080E0089530E73CBDDC0130E873
:100E7000439FC0011124A80FB91F5E91352F611146
:100E8000372F3C93C89500C052235EBD0197A9F748
:100E900004D003D030E50DB43CBD08958091B60573
:100EA000882329F081508093B60581E0089580E081
:100EB00008958091B9058093A8019FB19095907F86
:100EC000669B98601C9B94609093B90580958923DC
:100ED00008954F925F926F927F928F929F92AF92FE
:100EE000BF92CF92DF92EF92FF920F931F93CF9317
:100EF000DF9300D000D0CDB7DEB70091E7050551F4
:100F00008AE0089F80011124F801E455FF4F6491A5
:100F100070E090E080E00E9471252B013C0140923E
:100F2000CD055092CE056092CF057092D005F801A4
:100F3000E255FF4F649170E090E080E00E947125DF
:100F40006B017C01C092D105D092D205E092D3050D
:100F5000F092D405F801E055FF4FB490B092E1054E
:100F6000F801EE54FF4F649170E090E080E00E9441
:100F7000712569837A838B839C836093D9057093F1
:100F8000DA058093DB059093DC050C541F4FF801C4
:100F900004916B2DBB0C770B880B990B0E9473256A
:100FA0004B015C0120E030E04CED52E4C301B201A2
:100FB0000E945724A50194010E94C9242B013C01E1
:100FC0004092C5055092C6056092C7057092C8054B
:100FD00020E030E040E85FE3C701B6010E945724FB
:100FE000A50194010E94C9246B017C01C092C9052E
:100FF000D092CA05E092CB05F092CC0520E030E01B
:101000004CED52E4C301B2010E945824ADEBB5E0AF
:101010006D937D938D939C931397F7FAF094F7F863
:10102000F094C092C105D092C205E092C305F0923F
:10103000C405602F70E090E080E00E947125A5015A
:1010400094010E94C9246093DD057093DE058093AE
:10105000DF059093E00589819A81AB81BC81809303
:10106000D5059093D605A093D705B093D8050F90DA
:101070000F900F900F90DF91CF911F910F91FF90E4
:10108000EF90DF90CF90BF90AF909F908F907F9028
:101090006F905F904F9008958AE08093640610925D
:1010A000B8061092A4061092BA0681E08093F30667
:1010B00082E080932C0783E0809365070895109267
:1010C00071001092C10010928E011092E6050895F1
:1010D00080918E01882329F18091A101811121C085
:1010E0006091A2017091A3018091A40123E130E0FD
:1010F0004FE851E00E94D00536E0EFE8F1E090E0E3
:1011000080E0219141915191452B11F410928E0173
:101110002695821B91093150A1F790938D01809300
:101120008C018091E6058823C1F080917F018111B7
:1011300014C06091A5017091A6018091A70124E0DF
:1011400030E04CE751E00E94D00580917D01909104
:101150007E01892B11F41092E60580918E01811198
:1011600006C08091E605811102C00C945F080895C5
:10117000CF9390915C06992369F19091B5019923E1
:1011800049F190E0FC01EE0FFF1FE80FF91FE05F4F
:10119000FE4F80819181A2818093A5019093A60149
:1011A000A093A701C1E0C093E6050E946808809162
:1011B000710081110FC080E094E0909399008093BA
:1011C00098001092950010929400C093C10082E0A4
:1011D00080937100CF91089580918E01811104C098
:1011E0008091E605882341F0809179018F5F8330FB
:1011F00020F48093790181E00895109279010E9492
:1012000068088091A101882399F081508093A10101
:1012100081110EC08091A2019091A301A091A4011F
:101220004396A11D8093A2019093A301A093A401D2
:1012300080917F018823F9F2815080937F01811191
:10124000DACF8091A5019091A601A091A701049603
:10125000A11D8093A5019093A601A093A701CBCFD8
:10126000CF938093E30580915B06882311F18091F1
:10127000B5018823F1F00E945F081092A20110923C
:10128000A3011092A4011092A101C1E0C0938E01AC
:101290000E94EC0880E094E090939900809398007D
:1012A0001092950010929400C093C10082E0809348
:1012B0007100CF9108953F924F925F926F927F920B
:1012C0008F929F92AF92BF92CF92DF92EF92FF9256
:1012D0000F931F93CF93DF9300D01F92CDB7DEB74C
:1012E0003A01862EA6EBB1E0B701E02FDD24382EBF
:1012F00096959695969531E061FD34E060FD330F4B
:1013000062FD32955FEF539F7001E094F094759504
:1013100067957595679575956795462F4F3F4CF482
:101320004095941B20FD440F489F600C711C8D1C40
:101330004FEF17FF0BC0300E20FF02C0000F111F30
:10134000601A710A8D0817FD8394EE2750E8450353
:101350000E0EA00DB11D5E1B351608F0352E57E0A0
:10136000541B591714F4952FD39450E85319482E51
:10137000552421FD02C04318550820FF02C0440C2B
:10138000551C11245B824A82932E0090B301700C8D
:101390000090B401801C19C0599833E03EBD640C24
:1013A000751C811CAA24831509F0A3940CD08EBC53
:1013B00007D07EBC05D06EBC03D01EBC03D0089500
:1013C000C8950000C895C8950895641875088108E7
:1013D000E3DF41151CF0992371F564C0A058BF4F9D
:1013E000C32C20FD0CC06EB51EBC699DBC90BF20F7
:1013F000B128BD92C89500C0CA94A9F711C06EB5B6
:101400001EBC699DB001DEDFEEB41EBCE99C70011C
:10141000BC90F094BF20B72ABD92C895CA9479F7C2
:101420001124A319B1099A9509F45CC0AA2019F0F6
:101430000DB4599AB1DFFD01E058FF4FC32C20FDD8
:101440000EC06EB51EBC699DBC90BE20B028BD927A
:10145000B080BF20B128B192CA9499F716C06EB57A
:101460001EBC699DB001BC90F080AEDF00C0EEB440
:101470001EBCE99C0094B020B62ABD921094F120C5
:10148000F72AF1920000CA9451F71124A50FB11D5B
:101490009A9561F6DD2031F1AA2021F00DB4599A18
:1014A0007BDFC89520FD0CC06EB51EBC699DBC904D
:1014B000BE20B028BD92C89500C03A94A9F712C0CA
:1014C0006EB51EBC699DB0017DDF9EB51EBC999DA9
:1014D000902DBC909095B922B62ABD92C8953A94A9
:1014E00079F7C8951124599A0DB40F900F900F9069
:1014F000DF91CF911F910F91FF90EF90DF90CF90F0
:10150000BF90AF909F908F907F906F905F904F9023
:101510003F9008956F927F928F92AF92CF92DF9219
:10152000EF92FF920F931F93DC01922F2A2DF92F38
:10153000E42F3701802EC114D104A1F09695969521
:101540009695A0FC990F949F7001ED9C700C811CE6
:10155000FC9C700C811CFD9C800CEC9C600C711C34
:101560001124811C7B018D01682DA301CF010E94F4
:101570005B091F910F91FF90EF90DF90CF90AF909C
:101580008F907F906F9008954F925F926F927F92AD
:101590008F92AF92BF92CF92DF92EF92FF920F9312
:1015A0001F93CF93DF93EC012B013901842E842FFD
:1015B000B9010E94C4050E943A02B82E0E9440025E
:1015C000C038D105FCF490E449165104DCF49E01C6
:1015D0002B0D311D12161306ACF49201280F311D8C
:1015E000121613067CF492E0690E711C811C92E0C5
:1015F000A92E6801082D7301282F4B2DB201CE01B1
:101600000E948A0ADF91CF911F910F91FF90EF9076
:10161000DF90CF90BF90AF908F907F906F905F9052
:101620004F9008958F929F92AF92BF92CF92DF9288
:10163000EF92FF920F931F93CF93DF93C82FD62F74
:10164000809161068370F82E8091C9068F3F09F45E
:1016500029C1CC2ED12C862E912C54019CE5A90EAB
:10166000B11C53E0E52E86018E9D000D111D112445
:1016700028E53CEF43E062E170E0C5010E94C40A46
:1016800086010F5D1F4F28E53CEF43E068E170E005
:10169000C5010E94C40A8091CA0686018E9D000D74
:1016A000111D112428E53CEF43E06CE170E0C50119
:1016B0000E94C40AF1100BC086012EED32E444E012
:1016C00064E270E0C401835A9F4F0E94C40A809173
:1016D00002078F3F09F4F2C0AC2EB12C83E0D89FF3
:1016E0006001112491E1C916D1041CF040E1C42E1F
:1016F000D12C8091030733E0E32E85018E9D000DF0
:10170000111D11242CE53AEF43E0460188E2880ED2
:10171000911CB4018CE290E00E94C40A85010F5D27
:101720001F4F2CE53AEF43E0B40182E390E00E94C2
:10173000C40A8091020785018E9D000D111D1124A0
:101740002CE53AEF43E0B40186E390E00E94C40A3E
:1017500091E0F9120BC0B601675D7F4F85012EED58
:1017600032E444E08EE390E00E94C40A80913B079B
:101770008F3F09F4B9C0AC2EB12C8D2E912C86E090
:1017800090E06C01C818D90880913C0723E0E22E54
:1017900085018E9D000D111D11242AE53BEF43E0CC
:1017A00062E170E0C6010E94C40A85010F5D1F4F0F
:1017B0002AE53BEF43E068E170E0C6010E94C40AFD
:1017C00080913B0785018E9D000D111D11242AE596
:1017D0003BEF43E06CE170E0C6010E94C40A82E086
:1017E000F8120CC085012EED32E444E064E270E0B2
:1017F00087E090E0881999090E94C40A80917407D3
:101800008F3F09F480C0AC2EB12CCD2FD0E086E004
:1018100090E06C01CC1ADD0A8091750793E0992E57
:101820008501899D000D111D11242CE53AEF43E03F
:10183000B6018CE290E00E94C40A85010F5D1F4F43
:101840002CE53AEF43E0B60182E390E00E94C40A3F
:10185000809174078501899D000D111D11242CE5CF
:101860003AEF43E0B60186E390E00E94C40AF91023
:101870000CC067E070E06C1B7D0B85012EED32E43F
:1018800044E08EE390E00E94C40ADF91CF911F9163
:101890000F91FF90EF90DF90CF90BF90AF909F900F
:1018A0008F900895F11013CF0C2F10E0862F90E049
:1018B0002EED32E444E068E170E005CF81E0F812FB
:1018C00055CF0C2F10E093E0D99FB0011124613166
:1018D000710514F060E170E0675D7F4F2EED32E43A
:1018E00044E082E390E040CF92E0F91287CF0C2FE2
:1018F00010E02EED32E444E068E170E087E090E033
:101900008D1B910979CF83E0F812BFCF0C2F10E027
:1019100067E070E06D1B71092EED32E444E082E374
:1019200090E0B1CF4F925F926F927F928F92AF9281
:10193000BF92CF92DF92EF92FF920F931F93CF93BC
:10194000DF93EC012B013901842E842FB9010E9411
:10195000C4050E943A02B82E0E944002C038D10548
:10196000FCF490E449165104DCF49E012B0D311D6A
:1019700012161306ACF49201280F311D121613062D
:101980007CF492E0690E711C811C93E0A92E680121
:10199000082D7301282F4B2DB201CE010E948A0A17
:1019A000DF91CF911F910F91FF90EF90DF90CF903B
:1019B000BF90AF908F907F906F905F904F90089501
:1019C0000F931F93CF93DF93C82FD0E080915E06D3
:1019D00090915F0666E070E00E9434266F70772772
:1019E0008B01000F111F060F171F0C0F1D1F25EC79
:1019F0003AEB44E070E060E090E080E00E94C40ACE
:101A000080915E0690915F068C339105D8F1833DFD
:101A1000910508F046C06CE370E0681B790B77FF16
:101A200002C06D5F7F4F75956795759567958E01BF
:101A300027EC3AE745E084E090E00E94920C809128
:101A4000E70593E0899F000D111D11240251110932
:101A500080915E0690915F06BC016C53710977FF1F
:101A600002C06D5F7F4F7595679575956795719508
:101A700061957109605C7F4F20EB34EB43E080E5BA
:101A800090E008C08E0127EC3AE745E070E060E0A6
:101A900084E090E00E94920CDF91CF911F910F9112
:101AA00008958091E7058E0193E0899F000D111D37
:101AB00011240251110920EB34EB43E06BE170E09B
:101AC000DECFFC01468590E08FEF2FEF491759F0EC
:101AD0003189631305C03289321710F4892F232FFF
:101AE0009F5F3496F3CF0895FC01468590E08FEF19
:101AF00020E0491759F03189631305C03289231753
:101B000010F4892F232F9F5F3496F3CF0895FC01A3
:101B1000268590E080E0291759F03189631304C0CD
:101B20008F5F9F5F3496F7CF32893E30D1F7F8CF81
:101B30000895FC019081992341F091508181825058
:101B40002DE0929F800D112408958FEF08957F92CC
:101B50008F929F92AF92BF92CF92DF92EF92FF92BD
:101B60000F931F93CF93DF93EC01D12C8E85D81662
:101B7000D0F584E0D89E800111247801E1E1EE0ED9
:101B8000F11CEC0EFD1ED394CD2C0C0F1D1F0F5E0F
:101B90001F4F8E85C81650F7F4E0CF9E40011124E8
:101BA000540181E1A80EB11CAC0EBD1EC5010E94FE
:101BB000990D782EC7010E94990D781690F4F701BF
:101BC00090818181FE01E80DF91D41895289638967
:101BD0007489F8014083518362837383F501908394
:101BE0008183C394D6CF1E86FE019E01285D3F4FA0
:101BF0008189882339F08E858F5F8E873496E2172E
:101C0000F307B1F7DF91CF911F910F91FF90EF9004
:101C1000DF90CF90BF90AF909F908F907F9008956E
:101C2000CF93DF93EB01FA0190819883918199839F
:101C3000108229E3829FC00111248654994F0E948B
:101C4000A70D8FEF80936506CE010E94990DE82FB6
:101C5000F0E0E65AF94F86898F60868BDF91CF914D
:101C60000895FC0140814150550B6DE0649F900147
:101C7000659F300D112481818250990B820F931F33
:101C8000982F990F890F0895FF920F931F93CF9369
:101C9000DF93C82FF62E2FEF621354C08091B40645
:101CA000882391F084EB96E00E94310E282F2C0FB0
:101CB0003327331F890120E138E841E069E070E013
:101CC00086E290E00E94920C8091AC06882391F00D
:101CD0008CEA96E00E94310E282F2C0F3327331FF9
:101CE000890120E138E841E063E170E081E390E0C0
:101CF0000E94920C8091A806882391F088EA96E0D1
:101D00000E94310E282F2C0F3327331F89012CEF0F
:101D10003DE142E06DE070E08CE390E00E94920CC7
:101D20008091B006882309F462C080EB96E00E949F
:101D3000310E282F2C0F3327331F890122EE39EC67
:101D400041E04FC084EB96E00E94310ED0E08E015E
:101D5000080F111D33E0F31250C020915E06309140
:101D60005F062F7333272032310508F046C020E18B
:101D700038E841E069E070E086E290E00E94920C71
:101D80008CEA96E00E94310E8E01080F111D26E1AB
:101D90003AE842E063E170E081E390E00E94920C57
:101DA000FF2009F451C088EA96E00E94310E8E01AE
:101DB000080F111D22E030E243E06DE070E08CE39B
:101DC00090E00E94920C22E0F21609F458C080EBD9
:101DD00096E00E94310E8E01080F111D28EE3BEC9B
:101DE00042E065E170E084E190E00E94920CDF91B6
:101DF000CF911F910F91FF90089526E13AE842E0BC
:101E000069E070E086E290E00E94920C81E0F812B6
:101E1000B7CF8CEA96E00E94310E20915E06309199
:101E20005F062F7333272032310508F0A9CF8E01CA
:101E3000080F111D20E138E841E063E170E081E323
:101E400090E00E94920CAFCF88EA96E00E94310E9B
:101E500020915E0630915F062F73332720323105C3
:101E600008F0A1CF8E01080F111D2CEF3DE142E0DB
:101E70006DE070E08CE390E00E94920CA8CF80EBC4
:101E800096E00E94310E20915E0630915F062F731E
:101E900033272032310508F09ACF8E01080F111D2B
:101EA0004DCF6F927F928F929F92AF92BF92CF92BF
:101EB000DF92EF92FF920F931F93CF93DF93709077
:101EC0000107CCE0D0E0C719D109CC0FCC0F34E02A
:101ED000E32E37E0F32ED12CC12C66246394A82E78
:101EE000B12CD0E08C2DC714C8F5F701908199234F
:101EF00011F1F601E65AF94F6486909165064601A4
:101F000023E0880C991C2A95E1F78C0E9D1E9F3FBB
:101F100011F0C91217C080936506C7010E94310EE7
:101F20008501080F111D20E138E841E06BE270E007
:101F3000C4010E94920CFFEFCF1ADF0A84E0E80E82
:101F4000F11CD0CFC7010E94310E8501080F111D71
:101F500020E138E841E06FE270E0EACFDF91CF9115
:101F60001F910F91FF90EF90DF90CF90BF90AF90B7
:101F70009F908F907F906F9008956F927F928F9235
:101F80009F92AF92BF92CF92DF92EF92FF920F9308
:101F90001F93CF93DF93C82FD62F709001076CE06B
:101FA000E62EF12CE718F108EE0CEE0C74E0A72EEB
:101FB00077E0B72E612CF12C84E5E81A81E0F80A6D
:101FC0008C2E912C671421F1F50180818823D9F0A2
:101FD000C5018A5596406C01CC0CDD1CCE0CDF1C73
:101FE000C5010E94310E8401080F111D20E138E85F
:101FF00041E0D23019F026E13AE842E06FE270E0C9
:10200000C6010E94920C639494E0A90EB11CDACF31
:1020100080913A07D23009F049C0882381F00C2F13
:1020200010E0E3E08E9F000D111D112426E132E740
:1020300042E06AE070E090E080E00E94C40A809193
:102040007307882381F00C2F10E0F3E08F9F000DC1
:10205000111D11242EEF3EE742E06DEF7FEF8FE17F
:1020600090E00E94C40A8091C806882381F00C2F5A
:1020700010E093E0899F000D111D11242AE838E734
:1020800042E06AE070E084E690E00E94C40ADF91DA
:10209000CF911F910F91FF90EF90DF90CF90BF9065
:1020A000AF909F908F907F906F9008958823A1F0BC
:1020B000082F10E0055F1F4FC801880F991F080FF8
:1020C000191F0C0F111D26E132E742E06AE070E0B3
:1020D00090E080E00E94C40A00917307002399F009
:1020E00010E0055F1F4FC801880F991F080F191FC7
:1020F0000C0F111D2EEF3EE742E06DEF7FEF8FE1F9
:1021000090E00E94C40A0091C806002309F4BFCFE2
:1021100010E0055F1F4FC801880F991F080F191F96
:102120000C0F111DABCF5C98FC012591CF012EBD8A
:1021300000000DB407FEFDCF6150B1F75C9A089521
:102140001F920F920FB60F9211248F939F9380913D
:10215000E1009091E100937F9093E10083FF0FC035
:102160001092E90091E09093EB001092EC0092E362
:102170009093ED001092FD0598E09093F00082FF9F
:1021800022C093E09093E9009091F200992319F016
:102190009AE39093E8009091EE05992341F0909195
:1021A000EE0591509093EE05911101C05D9A9091CA
:1021B000FC05992341F09091FC0591509093FC050A
:1021C000911101C0289A84FF18C08091E2008E7E90
:1021D00081608093E2008091E1008F7E8093E10036
:1021E0008091EF058E7E80618093EF059F918F91A6
:1021F0000F900FBE0F901F90189580FFF7CF809122
:10220000E2008E7E80618093E2008091E1008E7E0C
:102210008093E1008091EF058E7E8160E5CF1F9273
:102220000F920FB60F921124CF92DF92EF92FF928E
:102230000F931F932F933F934F935F936F937F93CE
:102240008F939F93AF93BF93EF93FF93CF93DF93BE
:10225000CDB7DEB76C97DEBFCDBF1092E90080919D
:10226000E80083FF25C068E0CE0145960E949B03ED
:1022700082EF8093E8008D8987FF39C09091E80054
:1022800090FFFCCF982F907609F034C19E894F893A
:10229000588D2F89F88C911131C0803861F580916B
:1022A000ED058093F1001092F1008EEF8093E8002D
:1022B0006C960FB6F894DEBF0FBECDBFDF91CF9105
:1022C000FF91EF91BF91AF919F918F917F916F910E
:1022D0005F914F913F912F911F910F91FF90EF9040
:1022E000DF90CF900F900FBE0F901F9018959EEF2C
:1022F0009093E800C7CF1092F100D5CF913059F4F8
:102300008111D3CF4130510581F68091ED058D7F4C
:102310008093ED05CACF933049F48111C6CF413087
:10232000510519F68091ED058260F2CF953041F4A8
:102330008091E80080FFFCCF20682093E300B5CFB8
:10234000963009F0A9C00B8D1C8D22E01092E90097
:102350001092EB051092EA05F2122EC01092E905D8
:102360001092E8050E946A031F8299E09983FA821D
:1023700091E09E8390EA98879AEF99872091EA05E9
:102380003091EB05275F3F4F3C832B838D83109269
:10239000E9001092EB051092EA051093E90500930D
:1023A000E80549E050E0BE016F5F7F4F80E00E948A
:1023B00044030E946A0379CF1093E9050093E8056E
:1023C0000E948102DC0112960D911C9101151105EC
:1023D00009F451C1D801ED91FC910480F581E02D03
:1023E000BE016B5E7F4FC8010995009709F03EC1A1
:1023F000F80100851185EACFF3E0FF120EC08F8946
:10240000882309F440C0823061F440E867E088E244
:1024100092E00E949614811148CF81E28093EB00F4
:1024200047CF813029F440E86BE08CE192E0F1CFB6
:10243000833099F70E948102DC011296ED90FC90A6
:102440008E010F5F1F4F6801E114F10479F0D7018D
:10245000ED91FC910680F781E02DB801C701099547
:10246000080F111DF701E084F184EECFD8011C9212
:10247000F60101900020E9F73197BF016C197D0941
:1024800040E0C601C6CF66E072E0FB01449150E037
:1024900080E80E94440309CF973009F4BECF9830FA
:1024A00021F481E08093F10000CF993009F0FDCE56
:1024B000837009F0B2CFEAE4F1E081E031E096E325
:1024C0002191222371F08093E9003093EB00DF012A
:1024D00011972C912093EC009093ED008F5F873043
:1024E00079F78EE78093EA001092EA008F89809353
:1024F000FD05DBCE8B8D9C8D1092E9001092EB05D3
:102500001092EA059093E9058093E805898D811181
:1025100092C08E899D89913A49F4813209F07DCF2C
:1025200047E050E064E071E080E0B3CF913209F021
:1025300074CF833269F48F89988DB0E0A0E08093E6
:10254000000190930101A0930201B0930301ADCE6D
:10255000803269F48091E80082FFFCCF67E084E07C
:1025600091E00E949B038BEF8093E8009ECE823225
:1025700009F09BCE8F8980930B01EEEFFFE78591E9
:1025800094918B3F9C4D51F1E0E0F8E08091040183
:1025900090910501A0910601B0910701803B944004
:1025A000A105B105F1F480910B0180FD1AC0EE3F49
:1025B0008AE0F80789F587E797E791838083809120
:1025C00060008093EC0588E19BE00FB6F894A89535
:1025D000809360000FBE9093600067CEEEEFFAE04C
:1025E000D5CF808191818737974709F05ECEA89536
:1025F000809160008861809360008091EC058093F9
:102600006000EE3F2AE0F20789F08091FE0A909187
:10261000FF0A9183808349CE808191818737980713
:1026200051F29093FF0A8093FE0AC5CF1092FF0AE1
:102630001092FE0A3ACE0E948102DC0112960D91A0
:102640001C910115110509F4E8CED801ED91FC911A
:102650000190F081E02DBE016B5E7F4FC8010995AE
:10266000811123CEF80100851185EBCF18161906CC
:102670000CF41BCED2CEF1E0FF12BECE6AE072E0C7
:1026800004CF0F920FB68F939F93EF93FF93809198
:10269000AA018D5F8D3708F08D578093AA01EBEA70
:1026A000F1E080818E4F808391819F4F9183828161
:1026B0008F4F828383818F4F8383EFEAF1E08081A4
:1026C0008F5F808381818F4F818382818F4F82834F
:1026D00083818F4F83838FB18F6066991C9B88277E
:1026E0008F3681F48091A901981B963068F0E0E064
:1026F000F8E087E78083818388E180936000F0932E
:102700006000FFCF9093A901FF91EF919F918F916E
:102710000FBE0F9018951F920F920FB60F921124B3
:10272000EF92FF920F931F932F933F934F935F93DB
:102730006F937F938F939F93AF93BF93CF93DF93C9
:10274000EF93FF938091B501882391F180918E01E1
:10275000811104C08091E605882351F140919800D1
:1027600050919900569547955695479580918E01C1
:1027700081113BC030E020E08FEF9EE36091E605E1
:10278000662309F498C0ECE7F1E06191662309F44F
:1027900092C0A191B191E0917A01F0917B014E0F2D
:1027A0005F1F4A175B0708F460C04A1B5B0BF9CF39
:1027B0008FEF9FEF9093990080939800FF91EF9196
:1027C000DF91CF91BF91AF919F918F917F916F9149
:1027D0005F914F913F912F911F910F91FF90EF903B
:1027E0000F900FBE0F901F901895A0918C01B09183
:1027F0008D0186E0F82EC0E8D1E0EFE8F1E08FEF40
:102800009EE3E190619171918B01E11014C02296D9
:10281000FA94F110F6CF6091E5056A9F90016B9FE5
:10282000300D1124359527953595279535952795A4
:1028300035952795A3CF28813981240F351F261779
:10284000370710F0261B370B769567952617370745
:1028500018F4AE0DB11D8B0129933993021B130B94
:1028600008171907A8F6C801D3CFFD01F695E7951B
:1028700070E04E175F0720F0719561957109FD01B9
:10288000AAE7B1E04D935D93E41BF50BE817F90758
:1028900008F4CF01E091E405E69FA001E79F500D09
:1028A00011245595479555954795559547955595B7
:1028B0004795240F351F880F991F880F991F813066
:1028C00044E09407A8F0019788279C7F9C5F909331
:1028D000990080939800293731056CF428388FEFE0
:1028E00038075CF020581092BF002093CF0066CFCD
:1028F00080E094E0ECCF28E7F5CF28E8F3CF1F92F3
:102900000F920FB60F9211248F939F9382E496E05B
:10291000909389008093880081E08093B7059F9110
:102920008F910F900FBE0F901F901895EF92FF920E
:102930000F931F93CF93DF93F82E192FE62E042FBA
:1029400081E0860F880F0E94160383E00E94160321
:10295000CF2DD12FEC0EFD2EF11CCE15DF05B9F0D9
:1029600007FF13C0FE0184910E941603182F80E018
:102970000E941603812321968111EFCFDF91CF9121
:102980001F910F91FF90EF9008958881EDCF81E026
:10299000F5CFE0E0F6E01382128288EE93E0A0E04B
:1029A000B0E084839583A683B78384E591E0918327
:1029B00080838FEF9FEF95878487EAE5F6E081E0DB
:1029C0008183828397E093831582148211869AE033
:1029D00092879FEF93871092B8061092B906E0E5B0
:1029E000F6E01382128226E631E03183208398E0FC
:1029F0009187808715821682148287830895CDB7C8
:102A0000DEB7E397DEBFCDBF789483E084BD83E07B
:102A100085BD81E080936E00E1E8F0E083E0808393
:102A2000E0E881E08083E1E983E08083E0E981E020
:102A30008083E1EC87E08083E3EC81E08083E0EC5D
:102A400082E08083E2EC81E08083EAE787E08083B4
:102A5000806880831092FD051092ED051092EF05BD
:102A60008091D70081608093D70080EA8093D8005E
:102A700089B5806189BD89B5826089BD09B400FED0
:102A8000FDCF81E090E00E94F0058091D8008F7C1E
:102A900080618093D8008091E000807F8093E00087
:102AA0008091E1008E7E8093E1008DE08093E200D2
:102AB000559A209A81EC80937C0081EF85B987EE4E
:102AC00084B982E38BB982EF8AB9769A6E9880EFE7
:102AD00081BB10BA80E58CBD81E08DBD0E940406EB
:102AE0005F9A0E9404065C98E4E8F1E085918EBD4F
:102AF00000000DB407FEFDCFE139C1F75C9A81E813
:102B00008093640011E01093650062E081E991E038
:102B10000E94931068E083E991E00E9493109FB7B0
:102B2000F89422E436E0309389002093880083E013
:102B3000809380008BE18093810010928500109239
:102B4000840080916F00826080936F009FBF5E9AC7
:102B5000E4E1F0E085EE99EF60EF7FEF25913591AC
:102B6000559145912851354909F4CA018093B30123
:102B70009093B4012591359155914591285135494E
:102B800009F4BA016093FE057093FF058BEA0E9479
:102B9000E8050E9416020E945F0886E582BF82E473
:102BA0008093C0001093C30080E48093C40010920F
:102BB000BF008FE78093D1001092900089E080934E
:102BC000910080915D06880F8093E5058093E40570
:102BD0003E9A3F9A1093B50110925F0610925E06DE
:102BE0005E98F8948091B705811109C083B7816020
:102BF00083BF7894889583B78E7F83BFF2CF10927E
:102C0000B70578941091E2052FE741E050E061E0CC
:102C100070E086E395E00E94340762E08DE991E080
:102C20000E9493102FEF47E051E061E070E086EBE7
:102C300091E00E94340762E08BE991E00E949310DA
:102C40008EEF810F1F5F8E3F30F48091B6058F5F4E
:102C50008093B60510E01093E2055E9A8091E70537
:102C6000843108F077C0863008F0AAC0853008F0BB
:102C70009CC0E82EF12CC701880F991F8E0D9F1D57
:102C80000091E205080F192F111D2CE134E743E0F4
:102C900070E060E090E080E00E94C40A80915E06EF
:102CA00090915F060C9761F410925F0610925E0699
:102CB0002FEFE21AF20A33E0E322FF24E092E70565
:102CC0000E944E07882309F44BC080915E069091C4
:102CD0005F06019690935F0680935E068091B8052B
:102CE000803218F48F5F8093B8050E9459078823BB
:102CF000B9F18091B805803299F5809164008E7F9A
:102D00008093640080917A00806480937A0080913F
:102D10007A0086FDFCCF00917800109179000E9426
:102D20008B0630E020E0980111270027600F711F0B
:102D3000821F931F2091640021602093640061151D
:102D400071058105910511F00E94EB2385E08093C8
:102D5000E70506C0843109F418C2853308F493C22C
:102D60000E94EC08811104C08091E3050E943009A3
:102D700080915D0690E0880F991F2091E60522233F
:102D800011F40C940E23282F863091050CF426E0C4
:102D900026502093E5058093E40580E090E0892BA0
:102DA00009F41ECF0E9400001BCF80915A068111AA
:102DB00031C086E08093E70510925F0610925E06B0
:102DC0000E944E07882309F455C00091E7058091C1
:102DD0005E0690915F06019690935F0680935E0673
:102DE0000E945907182FEAEFE00FED3008F03BC0C2
:102DF000F0E0E350F94E0C944826501776179217DE
:102E000061176D178417A117C617E417A117C61706
:102E1000E4170C1789E0CECF2091B9058C7019F01A
:102E200088E08093E70514FD02C024FF0DC0809167
:102E3000BA059091BB05853E4EEF94072CF00197A3
:102E40009093BB058093BA0517FD02C027FF0BC006
:102E50008091BA059091BB0597FF05C001969093AC
:102E6000BB058093BA058091B805883418F48F5F4C
:102E70008093B8058091E205E091E705EC50E730DA
:102E800008F080C1F0E0E75BF84EE82EF12C0C94DE
:102E900048261018101849181018101849187C18CE
:102EA00084FF03C087E08093E70513FFDCCF109217
:102EB0005A060E94140284E18093E7050E944C08A0
:102EC000D2CF84FF03C08AE08093E7058091B906E2
:102ED00013FFC9CF8093E705C6CF87FF03C089E002
:102EE0008093E7058BE014FDDECFDFCF87FF03C0C3
:102EF00086E08093E70514FF03C088E08093E70530
:102F00008CE013FDE7CFAFCF87FF03C08AE080934B
:102F1000E70514FF03C088E08093E7058FE013FD09
:102F2000D9CFA1CF87FF03C087E08093E70513FFC8
:102F30009ACF82E18093E7051092BB051092BA0503
:102F400092CF83FF0CC080915B0691E0892780932C
:102F50005B06882391F08091E3050E94300912FFFF
:102F600006C00C3069F00F3079F00E941402809195
:102F7000E7058F5F14FDAECF76CF0E945F08EFCFDD
:102F800087E08093E705F1CF8BE0FBCF83FF06C09E
:102F900080915C0691E0892780935C0612FF06C051
:102FA0000D3061F0003171F00E94140217FFDFCF85
:102FB0008091E70581508093E705D9CF87E0809322
:102FC000E705F2CF8BE0FBCF85FF0AC080915D065D
:102FD000882331F0815080935D06880F8093E5054A
:102FE00016FF0AC080915D06873030F48F5F8093B2
:102FF0005D06880F8093E50512FF06C00E3051F084
:10300000013161F00E94140217FF2DCF8091E70576
:10301000815060CF87E08093E705F4CF8BE0FBCF52
:103020000E94E00C80915B06882351F0870122EA20
:1030300034EB43E06EE170E088E590E00E94920C92
:1030400080915C06882351F0870122EA34EB43E04B
:1030500068E270E088E590E00E94920C80915B0647
:10306000811105C080915C068701882341F0809121
:103070005D06870153E0859F000D111D11242EE18F
:1030800034EA43E060E370E08CE590E00E94920C4B
:1030900067CE0E94E00C80915B06882351F0870187
:1030A00022EA34EB43E06EE170E088E590E00E94B4
:1030B000920C80915C06882351F0870122EA34EB60
:1030C00043E068E270E088E590E00E94920C809115
:1030D0005B06811105C080915C068701882341F061
:1030E00080915D06870163E0869F000D111D11240C
:1030F00020E63CEA43E0C6CFC090BA05D090BB05BD
:10310000870123EC34E945E0B60190E080E00E94BD
:10311000C40AB6016C547F4F25E437EB45E090E0DC
:1031200080E00E94C40AD7FC14C080915E06909192
:103130005F068F739927809708F012CE87010D5F85
:103140001F4F27EC39ED45E067E370E088E790E03A
:103150009DCF80915E0690915F068F73992780972F
:1031600050F4870127EC39ED45E070E060E088E736
:1031700090E00E94920C75EEC7167EEFD7060CF415
:10318000EFCDD3CF0E94E00CEBCD10925F061092F2
:103190005E061092BC0585E18093E70510926306F8
:1031A000F12C92E02F2D81E0A4E02A9FF001112460
:1031B000E256F84F918380832F5F8F5F8530A1F7B0
:1031C000B4E0FB0E9F5FE4E3FE12ECCF0EE917E0E4
:1031D000FA94FF2031F10E949C2324E330E040E088
:1031E00050E00E94F42324E0629FF00111249F012B
:1031F0002656384FF90184819581A681B781F8015F
:1032000041915191619171918F01F90144835583ED
:1032100066837783F801349780839183A283B38395
:10322000D7CF83EF96E00E94A70D0E946907809197
:10323000610690E001968370992780936006E0E72D
:10324000F6E0119226E0E43AF207D9F7E8ECF6E06E
:1032500068EA76E04CEA57E09FEF91831282108291
:103260009F012D5F3F4F80E0D9011C928F5F2C5F43
:103270003F4F8A30C9F7DB011C92F9966C5F7F4F94
:103280004E175F0751F73090E2050E944E078823E2
:1032900009F4A7C11091E7050E945907082F8091F2
:1032A0005E0690915F06019690935F0680935E069E
:1032B000EBEEE10FE03208F094C1F0E0EE59F64E8B
:1032C0000C9448268219821982198219821982194E
:1032D0008219821982198219201B9D1B571B9D1B65
:1032E0009D1B9D1B571B9D1B4A1CE41B4A1C4A1C13
:1032F0004A1CE41B4A1C9B1D331ED81D7A1EF11A62
:103300008B1EA51E4090BD055090BE056090BF0568
:103310007090C0058090CD059090CE05A090CF050F
:10332000B090D005A5019401C301B2010E942326EB
:1033300018160CF056C1C090C105D090C205E0909F
:10334000C305F090C4052091D1053091D20540917C
:10335000D3055091D4052EA73FA748AB59ABC70161
:10336000B6010E94C42487FF3CC12091C50530915D
:10337000C6054091C7055091C805C301B2010E941E
:1033800058242B013C014092BD055092BE0560922D
:10339000BF057092C0052091C9053091CA054091C2
:1033A000CB055091CC05C701B6010E9458246B0192
:1033B0007C01C092C105D092C205E092C305F09293
:1033C000C4052091DD053091DE054091DF05509167
:1033D000E0056091D5057091D6058091D705909153
:1033E000D8050E9458246093D5057093D605809324
:1033F000D7059093D805A3019201C501B4010E949D
:10340000232687FF0BC0A70196016EA57FA588A97B
:1034100099A90E94C42418160CF4E3C080E10E940C
:10342000B8080091630634E0039FF0011124E256CE
:10343000F84F81819081FF24F394F00EF09263069F
:103440009AA78BA71CA61DA68091C80644E0849F5E
:10345000F0011124E654F94F4AA55BA56CA57DA5A2
:10346000418B528B638B748B8F5F8093C806CE0128
:103470008A960E94990DE82FF0E0E65AF94F868966
:103480008061868B54E0F59EF0011124E256F84FDE
:103490008181908172E0F72EF00EF09263069EA378
:1034A0008FA318A619A68091010764E0869FF001FA
:1034B0001124EC5FF84F4EA15FA168A579A5408368
:1034C0005183628373838F5F80930107CE01869659
:1034D0000E94990DE82FF0E0E65AF94F8689806244
:1034E000868B74E0F79EF0011124E256F84F81813B
:1034F0009081E3E0FE2EF00EF09263069AA38BA378
:103500001CA21DA280913A0794E0899FF00111242A
:10351000E35CF84F4AA15BA16CA17DA1408351837C
:10352000628373838F5F80933A07CE0182960E94F5
:10353000990DE82FF0E0E65AF94F86898064868B72
:10354000A4E0FA9EF0011124E256F84F81819081A7
:103550000C5F0093630699838A831B821C8280918F
:103560007307B4E08B9FF0011124EA58F84F4981AA
:103570005A816B817C8140835183628373838F5F27
:1035800080937307CE0101960E94990DE82FF0E019
:10359000E65AF94F86898068868B1F5F1093E7058E
:1035A000809164068B5E181303C08FE18093E7055A
:1035B0008091E7058F3108F440C08AEB96E00E94C5
:1035C000A70D83EF96E00E94A70D8CE297E00E9482
:1035D000A70D85E697E00E94A70D10925F06109256
:1035E0005E06D090E705EBEEED0DE03208F0B8CBCB
:1035F000F0E0E350F54E0C944826AD1EAD1EAD1E16
:10360000AD1EAD1EAD1EAD1EAD1EAD1EAD1E4B1FC3
:10361000FD1FA01FFD1FFD1FFD1FA01FFD1F55212A
:103620003820552155215521382055219021DB2165
:10363000DB21DB21B016E122E1220E946907D1CF14
:103640004C9709F028C480E10E94B8088091630675
:1036500024E0829FF0011124E256F84F91811081FD
:103660008F5F809363069093A5061093A40684EA67
:1036700096E00E94990DE82FF0E0E65AF94F86890E
:103680008F60868B10925F0610925E06612F83EF2B
:1036900096E00E94870D8093BC058091610690E0C2
:1036A000019683709927805E8093E7059ACF07FF84
:1036B00009C08091BC0590916406891718F48F5F4A
:1036C0008093BC0504FF07C08091BC05882319F0D6
:1036D00081508093BC0503FF28C02091610630E033
:1036E0002F5F3F4F2370332780EE810F9091BC05F1
:1036F000909302071F5F1093E70510925F061092E8
:103700005E06821779F090E001968370992728175A
:10371000390741F480916006895D8093E7058FEF5A
:10372000809365068BE00E94B80802FF5ACF809113
:10373000E7058093B90683E3B7CF0C9709F051CF23
:10374000E0906106F12C3FEFE31AF30A43E0E42234
:10375000FF2400EE010F802F837059E3859FC00185
:103760001124BC016654794F6B016091A406C60117
:103770000E94870DD6011F968C931F5F1093E7055B
:1037800010925F0610925E060E1581F0802F90E079
:10379000019683709927E816F90641F48091600636
:1037A000895D8093E7058FEF80936506023041F0D5
:1037B000033041F08AE0011114CF0E94B80811CF04
:1037C0008CE0FBCF8DE0F9CF05FF11C0809165063D
:1037D0008150E82F082E000CFF0BE959F94F87FDA7
:1037E00006C09291992309F44DC08093650606FFA7
:1037F00016C0809165068F5F2091010730E0482F49
:10380000082E000C550B421753074CF4E82FF0E03C
:10381000E65AF94F94859923B9F18093650607FD1F
:1038200002C003FF82CFE0916506B4E0EB9FF00198
:103830001124EC5FF84F80818093AC0681818093E6
:10384000AD06108283EF96E00E94A70D81E0810F04
:103850008093E70510925F0610925E068752990BDF
:1038600020916006821B9109049794F081E00E94E8
:1038700043018EE28093E70580916206813031F446
:1038800083E051CF8150ABCF8F5FB9CF84E04BCF76
:1038900080E149CF0C9709F0A4CEE12FE752FF0B4E
:1038A0007F01F3E0EF22FF249E2D29E32E9DA0014E
:1038B0002F9D500D1124BA016654794F4B01970189
:1038C000220F331F220F331FD901A855B94F5D01B5
:1038D00080916006F401F089FEA7D4011F962C9018
:1038E000B4E08B9FF0011124E855F94F0081FA01F3
:1038F000E853F94F60802A01E1E74E0E511C920116
:10390000265A394F6901712C671409F48BC62C5F54
:103910003F4FF90134974081041709F495C6739419
:10392000F3CF602FC4010E94740DC82E602FC40114
:103930000E94610D082F3EA5321500F54FEFC41609
:10394000C1F054E0C59E60011124C40CD51CB60121
:10395000665A794F6B01CB010E947F0181112AC009
:1039600074E0079FA0011124440D551D465A594F7C
:1039700022C084E0089FA0011124F6CF94E0899F23
:10398000A0011124F1CFAFEFCA16C9F0B4E0CB9E6D
:1039900060011124C40CD51CF601E65AF94F6F01E1
:1039A000CF010E947F01811105C0F4E00F9FA001AB
:1039B0001124DACFA601B5018E2D0E94100E81E0F0
:1039C000810F8093E70510925F0610925E06875282
:1039D000990B20916006821B910904970CF4A9C0F1
:1039E00081E00E9443018EE28093E7051092BC05BE
:1039F00080916206813009F09AC083E0DECE912C7E
:103A00000FEF88248A94791409F48CC0C6010E94AF
:103A1000990D881538F0882D939434E0C30ED11C8D
:103A2000882EF1CF092DF8CFAF018F3F21F6C601C7
:103A300020E0621661F0AC010496FC0133973081FE
:103A40003E3011F02F5FF5CF2F3F09F0B4CFD401F6
:103A50001E96BC91BEA7EB2FE150FF0BFBABEAAB70
:103A6000912C812C48E8742E0FEF682CFEA58F1640
:103A700008F03FC0D6012C90EAA9FBA98E169F063C
:103A800024F414968C91821569F1C6010E94990D57
:103A90008F5FFDE02F9E402D1124E82FF0E0E059CC
:103AA000F94F90E020E0841740F4319130FF03C0DB
:103AB0009F5F8F5FF8CF2F5FFCCFD60111968C915F
:103AC000E82FE90FFF27FF1FAF01421B5109672DA8
:103AD000072C000C770B6417750724F4792E780EE9
:103AE000721A062DFFEF8F1A9F0A24E0C20ED11C16
:103AF000BCCF34E0039FA001112436CF912C0FEFEF
:103B000088248A94691471F0C6010E94990D881561
:103B100038F0882D939444E0C40ED11C882EF2CF47
:103B2000092DF8CF64E0069FA00111241DCF84E089
:103B300044CE80E142CE8091C80603FF18C088239E
:103B400099F110925F0610925E069091620627E24C
:103B5000290F2093E7059093600610926206109259
:103B6000A8061092AC061092B0061092B40602FF9E
:103B700007C09091E7059093B90693E39093E7050A
:103B800081112FCD80915E0690915F0683709927F9
:103B9000892B09F026CD8091BC05863008F021CD17
:103BA0008F5F8093BC051DCD90E39093E705DFCF39
:103BB0000BEB16E0F12CD8011F968C911F971E96E7
:103BC0009C91F8013D96891338C0865F95E032914B
:103BD0002291338322839150D0F7F80121813281E1
:103BE000280F311D328321838083B1E0FB1210C086
:103BF0008091B806813021F4809164068A3041F0CA
:103C0000F8019785868598132CC081E00E94B8083A
:103C1000F394075C1F4FF4E0FF12CDCF1092BC0568
:103C20008FE28093E70510925F0610925E0681E0B6
:103C300080935A060E941402D4CC95E032912291CE
:103C4000338322839150D0F7D80111962D913C9166
:103C50001297280F311D12963C932E9311978C9337
:103C6000C4CF80E0D3CF03FF0BC08091B806882378
:103C700021F1813099F1809161068F5F8093610617
:103C800002FF07C08091E7058093B90683E3809324
:103C9000E70580915E0690915F068034910509F0FA
:103CA000A0CC8091B806813009F09BCC809164064D
:103CB0008A3009F096CC81E3F7CC8091640681309C
:103CC00049F492E0909364068093B80684E180936F
:103CD000E705D1CF815080936406F8CF80916406C8
:103CE0008A3031F481E38093E7051092BC05C3CF9D
:103CF0008F5FF1CF2091BC05243228F480FD03C0F2
:103D00002F5F2093BC0503FF56C310925A060E94F2
:103D1000140285E0C9CC06FF03C084E38093E70565
:103D200003FF0EC081E080935A060E94140289E0CE
:103D30008093E70582ED90E090935F0680935E06A6
:103D400002FF4FCC8091B906AFCC05FF03C083E3DF
:103D50008093E7050C70B1F744CCE32CF12C87017C
:103D600022E338EF43E070E060E089E690E00E94F3
:103D7000C40A8091640623E0829F000D111D112466
:103D80000350110924E237E044E064E270E08DE67C
:103D900090E00E94C40A0091B806802F90E08C0148
:103DA000000F111F080F191F0E0D1F1D2CE938E3FE
:103DB00044E064E370E08FE690E00E94C40A62E0B1
:103DC000832D0E94BD0F87012FEE32E444E061E0B5
:103DD00070E08EE690E00E94C40A8090BD0590904D
:103DE000BE05A090BF05B090C0052091CD053091D3
:103DF000CE054091CF055091D005C501B4010E9478
:103E00002326181614F00C94B0164090C10550905B
:103E1000C2056090C3057090C4052091D105309112
:103E2000D2054091D3055091D405C301B2010E943F
:103E3000C42487FD02C00C94B0166091D505709122
:103E4000D6058091D7059091D8050E944225862FEE
:103E500064E20E94282633E0939F000D111D112477
:103E600020E030E040E850E4C301B2010E94572452
:103E70000E943B256B0120E030E040EA50E4C501A0
:103E8000B4010E9457240E943B25CB0121E833E472
:103E900044E0B601FBC8E32CF12C870122E338EFA4
:103EA00043E070E060E089E690E00E94C40A8091FF
:103EB000640643E0849F000D111D11240350110975
:103EC00024E237E044E064E270E08DE690E00E9496
:103ED000C40A0091B806802F90E08C01000F111FDA
:103EE000080F191F0E0D1F1D2CE938E344E064E391
:103EF00070E08FE690E00E94C40A62E0832D0E9489
:103F0000BD0F87012FEE32E444E061E070E08EE601
:103F100090E00E94C40A80915E0690915F0696959B
:103F200087958C01000F111F080F191F0E0D1F1D03
:103F300023EC38EA44E061E070E08EE690E0A6C849
:103F4000E32CF12C870122E338EF43E070E060E0DE
:103F500089E690E00E94C40A8091640653E0859F40
:103F6000000D111D11240350110924E237E044E033
:103F700064E270E08DE690E00E94C40A0091B80609
:103F8000802F90E08C01000F111F080F191F0E0DDC
:103F90001F1D2CE938E344E064E370E08FE690E015
:103FA0000E94C40A60E0832D0E94120B62E0832D00
:103FB0000E94BD0F84EA96E00E94310E8701080F2F
:103FC000111D26E13AE842E070E060E08DE690E005
:103FD0000E94920C8091BC05870163E0869F000DD2
:103FE000111D112426E53DEF43E065E170E082E21A
:103FF00090E00E94C40A0C94B016E32CF12C8701C7
:1040000022E338EF43E070E060E089E690E00E9450
:10401000C40A8091640673E0879F000D111D11246E
:104020000350110924E237E044E064E270E08DE6D9
:1040300090E00E94C40A0091B806802F90E08C01A5
:10404000000F111F080F191F0E0D1F1D2CE938E35B
:1040500044E064E370E08FE690E00E94C40A60E010
:10406000832D0E94120B61E0832D0E94BD0F76C04C
:10407000E32CF12C870122E338EF43E070E060E0AD
:1040800089E690E00E94C40A8091640693E0899FCB
:10409000000D111D11240350110924E237E044E002
:1040A00064E270E08DE690E00E94C40A0091B806D8
:1040B000802F90E08C01000F111F080F191F0E0DAB
:1040C0001F1D2CE938E344E064E370E08FE690E0E4
:1040D0000E94C40A60E0832D0E94120B2090010709
:1040E000A1E02A124BC010926506832D0E94510F49
:1040F00080913A0743E0D42E87018D9D000D111D5C
:10410000112426E132E742E06AE070E090E080E0CE
:104110000E94C40A8091730787018D9D000D111DB7
:1041200011242EEF3EE742E06DEF7FEF8FE190E04C
:104130000E94C40A8091C80687018D9D000D111D43
:1041400011242AE838E742E06AE070E084E690E073
:104150000E94C40A6FEF832D0E94440E84EA96E009
:104160000E94310E8701080F111D26E13AE842E056
:1041700070E060E08DE690E00C94461881E090914C
:10418000A806911101C080E09091AC0691118F5F5B
:104190009091B00691118F5F9091B406911103C078
:1041A000882309F4A2CF80916006B4E08B9FC00100
:1041B0001124FC01E855F94FFFA7EEA790812AE5ED
:1041C00036E080E0281609F490CF2C5F3F4FF901CC
:1041D000EA55FF4F4081941348C064E0C62E67E063
:1041E000D62E7CE0672E712C62187108660C660C66
:1041F000712CB12CA12C8A2DA21408F079CFD601F4
:104200009C91992359F1450153E0880C991C5A95CA
:10421000E1F7860C971CEEA5FFA52081A501465A63
:10422000594F2A0192132FC0909165069F3F11F0BC
:10423000A9121DC080936506C6010E94310E870138
:10424000080F111D20E138E841E06BE270E0C40185
:104250000E94920CE1E0D2011C96EC93BFEFAB1AE6
:10426000BB0AE4E0CE0ED11CC6CF8F5FABCFC60138
:104270000E94310E8701080F111D20E138E841E04E
:104280006FE270E0E4CFDA011C961C92C6010E9436
:10429000310E8701080F111D26E13AE842E06FE276
:1042A00070E0C4010E94920CD9CFE32CF12C87015D
:1042B00022E338EF43E070E060E089E690E00E949E
:1042C000C40A80916406F3E08F9F000D111D112434
:1042D0000350110924E237E044E064E270E08DE627
:1042E00090E00E94C40A0091B806802F90E08C01F3
:1042F000000F111F080F191F0E0D1F1D2CE938E3A9
:1043000044E064E370E08FE690E00E94C40A60E05D
:10431000832D0E94120B6FEF832D0E94440EA3CEBB
:10432000E32CF12C870122E338EF43E070E060E0FA
:1043300089E690E00E94C40A8091640623E0829F8F
:10434000000D111D11240350110924E237E044E04F
:1043500064E270E08DE690E00E94C40A0091B80625
:10436000802F90E08C01000F111F080F191F0E0DF8
:104370001F1D2CE938E344E064E370E08FE690E031
:104380000E94C40A6091BC05832D0E94120B6091AB
:104390006206832D0E94440E62E0832D0E94BD0FB1
:1043A00084EA96E00E94310E8701080F111D20E17A
:1043B00038E841E0DDCEE32CF12C870122E338EF31
:1043C00043E070E060E089E690E00E94C40A8091DA
:1043D000640633E0839F000D111D11240350110961
:1043E00024E237E044E064E270E08DE690E00E9471
:1043F000C40A0091B806802F90E08C01000F111FB5
:10440000080F191F0E0D1F1D2CE938E344E064E36B
:1044100070E08FE690E00E94C40A87012CEE38E33A
:1044200044E070E060E090E080E00E94C40A311057
:1044300056C0E4E0BE2ECC24C394D12CA1E1AA2E18
:10444000B0925506B0925406A0925606C6018370EB
:10445000992749E3489F8001499F100D1124065474
:10446000194FD80111968C918A3040F441E050E008
:104470006EE671E080E596E00E94A803F8012181D4
:1044800030E050E040E019A28E010F5D1F4FCA01DD
:10449000B9012AE030E040E050E00E942624605D4F
:1044A000D8016E938D01211531054105510579F72C
:1044B000109769F0FD0101900020E9F73197AF01F5
:1044C0004A1B5B0BBD0180E596E00E94A803BFEF8D
:1044D000CB1ADB0AEAE1BE0EFCE6BF12B1CF222402
:1044E0002394CC24C394D12C21E0C21611F02315BF
:1044F00098F13AE13C9D20013D9D500C11244CE087
:10450000441A510859E3529D3001112462E1862E6C
:10451000912CB12CA12CF501EE0FFF1FE60DF71D1C
:10452000E454F94F808191818C01000F111F080F15
:10453000191F0E0D1F1D26EE3AE044E0B401C20122
:104540000E94C40A6FEFA61AB60A78E0870E911C83
:1045500086E0A816B104F9F69FEFC91AD90A239488
:10456000A22DA3702A2EB5E0CB16D10409F0BCCF42
:1045700084EA96E00E94310E8701080F111D20E1A8
:1045800038E841E070E060E08DE690E00E94920C37
:104590008091E705813311F00C94B016E091BC05D1
:1045A000F0E0E156FE4F6491062E000C770B685048
:1045B0007109870129EA3BE845E084E090E00C942A
:1045C000461880915E0690915F0666E070E00E945A
:1045D00034266F7077278B01000F111F060F171FEE
:1045E000E32CF12C0E0D1F1D25EC3AEB44E070E09E
:1045F00060E090E080E00E94C40A8DEC8D0D8701A0
:10460000E3E08E9F000D111D112429E23AED45E0F3
:1046100070E060E090E080E00C9446188093E5053F
:104620000C94CD16981791F00091A406960180E0A5
:10463000781609F4E4C92C5F3F4FF9013497908153
:104640009017D9F08F5FF4CF98136BC99091A4069F
:104650007EA5721508F052CAF60180E0681609F4CA
:10466000E6C9992319F02081921304C021812E30CC
:1046700009F4DAC98F5F3496F1CF602FC4010E942C
:10468000740DC82E602FC4010E94610D082FFEA575
:10469000F21508F478C924E0029FA001112464C92E
:1046A0008F929F92AF92BF92CF92DF92EF92FF9242
:1046B000CF93DF93EC01688179818A819B816115B9
:1046C00071058105910521F464E279ED8BE597E0B0
:1046D0002DE133EF41E050E00E94F42349015A01FB
:1046E0009B01AC01A7EAB1E40E9413246B017C0199
:1046F000ACEEB4EFA50194010E942124C60ED71E92
:10470000E81EF91EF7FE06C081E0C81AD108E108CC
:1047100080E8F80AC882D982EA82FB82C701B60122
:104720009F77DF91CF91FF90EF90DF90CF90BF9078
:10473000AF909F908F9008958F929F92AF92BF926B
:10474000CF92DF92EF92FF9260910C0170910D0178
:1047500080910E0190910F01611571058105910500
:1047600021F464E279ED8BE597E02DE133EF41E050
:1047700050E00E94F42349015A019B01AC01A7EAD1
:10478000B1E40E9413246B017C01ACEEB4EFA501EF
:1047900094010E942124C60ED71EE81EF91EF7FEC2
:1047A00006C081E0C81AD108E10880E8F80AC09282
:1047B0000C01D0920D01E0920E01F0920F01C701A1
:1047C000B6019F77FF90EF90DF90CF90BF90AF90B2
:1047D0009F908F90089560930C0170930D018093CA
:1047E0000E0190930F010895052E97FB1EF400947F
:1047F0000E940B2457FD07D00E94262407FC03D0FB
:104800004EF40C940B2450954095309521953F4FD4
:104810004F4F5F4F089590958095709561957F4FAC
:104820008F4F9F4F08950E944824A59F900DB49FDD
:10483000900DA49F800D911D11240895B7FF0C9435
:1048400013240E941324821B930B0895A1E21A2EB5
:10485000AA1BBB1BFD010DC0AA1FBB1FEE1FFF1F24
:10486000A217B307E407F50720F0A21BB30BE40B74
:10487000F50B661F771F881F991F1A9469F76095BB
:104880007095809590959B01AC01BD01CF01089575
:10489000A29FB001B39FC001A39F700D811D112481
:1048A000911DB29F700D811D1124911D08955058C6
:1048B000BB27AA270E946F240C94E9250E94DB25C0
:1048C00038F00E94E22520F039F49F3F19F426F4D5
:1048D0000C94D8250EF4E095E7FB0C94D225E92F33
:1048E0000E94FA2558F3BA176207730784079507E1
:1048F00020F079F4A6F50C941C260EF4E0950B2E0E
:10490000BA2FA02D0B01B90190010C01CA01A00121
:104910001124FF27591B99F0593F50F4503E68F17C
:104920001A16F040A22F232F342F4427585FF3CFBD
:10493000469537952795A795F0405395C9F77EF48E
:104940001F16BA0B620B730B840BBAF09150A1F0D7
:10495000FF0FBB1F661F771F881FC2F70EC0BA0F5D
:10496000621F731F841F48F4879577956795B795E5
:10497000F7959E3F08F0B0CF9395880F08F09927E0
:10498000EE0F9795879508950E94AE2508F481E073
:1049900008950E94DD240C94E9250E94E22558F038
:1049A0000E94DB2540F029F45F3F29F00C94D225CA
:1049B00051110C941D260C94D8250E94FA2568F3F9
:1049C0009923B1F3552391F3951B550BBB27AA27C8
:1049D00062177307840738F09F5F5F4F220F331F02
:1049E000441FAA1FA9F335D00E2E3AF0E0E832D0CA
:1049F00091505040E695001CCAF72BD0FE2F29D0CD
:104A0000660F771F881FBB1F261737074807AB079E
:104A1000B0E809F0BB0B802DBF01FF2793585F4F13
:104A20003AF09E3F510578F00C94D2250C941D2647
:104A30005F3FE4F3983ED4F3869577956795B795F5
:104A4000F7959F5FC9F7880F911D9695879597F900
:104A50000895E1E0660F771F881FBB1F6217730779
:104A60008407BA0720F0621B730B840BBA0BEE1F8E
:104A700088F7E09508950E9442256894B1110C943E
:104A80001D2608950E94022688F09F5798F0B92F9E
:104A90009927B751B0F0E1F0660F771F881F991F73
:104AA0001AF0BA95C9F714C0B13091F00E941C26D3
:104AB000B1E008950C941C26672F782F8827B85FE3
:104AC00039F0B93FCCF3869577956795B395D9F7CB
:104AD0003EF490958095709561957F4F8F4F9F4FD5
:104AE0000895E89409C097FB3EF4909580957095E1
:104AF00061957F4F8F4F9F4F9923A9F0F92F96E92A
:104B0000BB279395F695879577956795B795F1119E
:104B1000F8CFFAF4BB0F11F460FF1BC06F5F7F4F3B
:104B20008F4F9F4F16C0882311F096E911C077234D
:104B300021F09EE8872F762F05C0662371F096E856
:104B4000862F70E060E02AF09A95660F771F881F25
:104B5000DAF7880F9695879597F90895990F0008C9
:104B6000550FAA0BE0E8FEEF16161706E807F9073F
:104B7000C0F012161306E407F50798F0621B730BDA
:104B8000840B950B39F40A2661F0232B242B252B5B
:104B900021F408950A2609F4A140A6958FEF811DFE
:104BA000811D089597F99F6780E870E060E008959F
:104BB0009FEF80EC089500240A9416161706180635
:104BC0000906089500240A94121613061406050611
:104BD0000895092E0394000C11F4882352F0BB0FA2
:104BE00040F4BF2B11F460FF04C06F5F7F4F8F4F05
:104BF0009F4F089557FD9058440F551F59F05F3F40
:104C000071F04795880F97FB991F61F09F3F79F0EE
:104C100087950895121613061406551FF2CF469570
:104C2000F1DF08C0161617061806991FF1CF8695F2
:104C30007105610508940895E894BB2766277727D6
:104C4000CB0197F908950E94AE2508F48FEF0895DF
:104C5000991B79E004C0991F961708F0961B881FCE
:104C60007A95C9F780950895AA1BBB1B51E107C02F
:104C7000AA1FBB1FA617B70710F0A61BB70B881FEC
:104C8000991F5A95A9F780959095BC01CD0108957B
:104C9000EE0FFF1F0590F491E02D0994F894FFCFDB
:104CA000FFFFFFFF00E10000000000000100000026
:104CB000808501248601D88601EC860108870124BD
:104CC0008701348701448701888701988701A88775
:104CD00001B08701B88701C08701C88701D087016B
:104CE000D88701E08701E8870100C18081000000CA
:104CF0000000000095020806B602AB02FC02BA02F0
:104D0000D80200000000A306A803310730073000D6
:00000001FF
